{
  "_format": "hh-sol-artifact-1",
  "contractName": "Coverage",
  "sourceName": "contracts/Coverage.sol",
  "abi": [
    {
      "inputs": [
        {
          "internalType": "address",
          "name": "cUDSTAddress",
          "type": "address"
        }
      ],
      "stateMutability": "nonpayable",
      "type": "constructor"
    },
    {
      "anonymous": false,
      "inputs": [
        {
          "indexed": true,
          "internalType": "address",
          "name": "sender",
          "type": "address"
        },
        {
          "indexed": false,
          "internalType": "address",
          "name": "receiver",
          "type": "address"
        },
        {
          "indexed": true,
          "internalType": "uint256",
          "name": "amountSpent",
          "type": "uint256"
        }
      ],
      "name": "Deposit",
      "type": "event"
    },
    {
      "anonymous": false,
      "inputs": [
        {
          "indexed": true,
          "internalType": "address",
          "name": "previousOwner",
          "type": "address"
        },
        {
          "indexed": true,
          "internalType": "address",
          "name": "newOwner",
          "type": "address"
        }
      ],
      "name": "OwnershipTransferred",
      "type": "event"
    },
    {
      "anonymous": false,
      "inputs": [
        {
          "indexed": false,
          "internalType": "address",
          "name": "user",
          "type": "address"
        },
        {
          "indexed": false,
          "internalType": "string",
          "name": "planDetails",
          "type": "string"
        },
        {
          "indexed": false,
          "internalType": "uint256",
          "name": "lockTime",
          "type": "uint256"
        }
      ],
      "name": "Plan",
      "type": "event"
    },
    {
      "anonymous": false,
      "inputs": [
        {
          "indexed": false,
          "internalType": "string",
          "name": "",
          "type": "string"
        },
        {
          "indexed": false,
          "internalType": "uint256",
          "name": "",
          "type": "uint256"
        }
      ],
      "name": "Redeem",
      "type": "event"
    },
    {
      "anonymous": false,
      "inputs": [
        {
          "indexed": true,
          "internalType": "address",
          "name": "applicant",
          "type": "address"
        },
        {
          "indexed": true,
          "internalType": "string",
          "name": "applicantDetails",
          "type": "string"
        }
      ],
      "name": "RegisterClient",
      "type": "event"
    },
    {
      "anonymous": false,
      "inputs": [
        {
          "indexed": true,
          "internalType": "address",
          "name": "sender",
          "type": "address"
        },
        {
          "indexed": false,
          "internalType": "uint256",
          "name": "amount",
          "type": "uint256"
        },
        {
          "indexed": true,
          "internalType": "address",
          "name": "receiver",
          "type": "address"
        }
      ],
      "name": "Transfer",
      "type": "event"
    },
    {
      "anonymous": false,
      "inputs": [
        {
          "indexed": true,
          "internalType": "address",
          "name": "receiver",
          "type": "address"
        },
        {
          "indexed": false,
          "internalType": "uint256",
          "name": "amount",
          "type": "uint256"
        }
      ],
      "name": "TransferAssert",
      "type": "event"
    },
    {
      "anonymous": false,
      "inputs": [
        {
          "indexed": false,
          "internalType": "address",
          "name": "from",
          "type": "address"
        },
        {
          "indexed": false,
          "internalType": "address",
          "name": "to",
          "type": "address"
        },
        {
          "indexed": false,
          "internalType": "uint256",
          "name": "amount",
          "type": "uint256"
        }
      ],
      "name": "Withdraw",
      "type": "event"
    },
    {
      "inputs": [
        {
          "internalType": "string",
          "name": "_clientDetails",
          "type": "string"
        }
      ],
      "name": "_onBoarding",
      "outputs": [],
      "stateMutability": "nonpayable",
      "type": "function"
    },
    {
      "inputs": [
        {
          "internalType": "address",
          "name": "_asset",
          "type": "address"
        }
      ],
      "name": "_redem",
      "outputs": [],
      "stateMutability": "nonpayable",
      "type": "function"
    },
    {
      "inputs": [],
      "name": "admin",
      "outputs": [
        {
          "internalType": "address",
          "name": "",
          "type": "address"
        }
      ],
      "stateMutability": "view",
      "type": "function"
    },
    {
      "inputs": [
        {
          "internalType": "address",
          "name": "",
          "type": "address"
        },
        {
          "internalType": "address",
          "name": "",
          "type": "address"
        }
      ],
      "name": "assets",
      "outputs": [
        {
          "internalType": "uint256",
          "name": "",
          "type": "uint256"
        }
      ],
      "stateMutability": "view",
      "type": "function"
    },
    {
      "inputs": [],
      "name": "cToken",
      "outputs": [
        {
          "internalType": "contract ICompoundToken",
          "name": "",
          "type": "address"
        }
      ],
      "stateMutability": "view",
      "type": "function"
    },
    {
      "inputs": [
        {
          "internalType": "address",
          "name": "",
          "type": "address"
        }
      ],
      "name": "clientBalance",
      "outputs": [
        {
          "internalType": "uint256",
          "name": "",
          "type": "uint256"
        }
      ],
      "stateMutability": "view",
      "type": "function"
    },
    {
      "inputs": [
        {
          "internalType": "uint256",
          "name": "",
          "type": "uint256"
        }
      ],
      "name": "clients",
      "outputs": [
        {
          "internalType": "uint256",
          "name": "id",
          "type": "uint256"
        },
        {
          "internalType": "string",
          "name": "clientDetails",
          "type": "string"
        },
        {
          "internalType": "address",
          "name": "underlyingAsset",
          "type": "address"
        },
        {
          "internalType": "uint256",
          "name": "depositedAmount",
          "type": "uint256"
        },
        {
          "internalType": "uint256",
          "name": "amountToSpend",
          "type": "uint256"
        },
        {
          "internalType": "uint256",
          "name": "timeDurationOfdeposit",
          "type": "uint256"
        },
        {
          "internalType": "uint256",
          "name": "lockTime",
          "type": "uint256"
        },
        {
          "internalType": "string",
          "name": "ipfsPensionDetails",
          "type": "string"
        },
        {
          "internalType": "bool",
          "name": "currentPlan",
          "type": "bool"
        }
      ],
      "stateMutability": "view",
      "type": "function"
    },
    {
      "inputs": [
        {
          "internalType": "address",
          "name": "_asset",
          "type": "address"
        },
        {
          "internalType": "uint256",
          "name": "_amount",
          "type": "uint256"
        }
      ],
      "name": "depositAssert",
      "outputs": [],
      "stateMutability": "nonpayable",
      "type": "function"
    },
    {
      "inputs": [
        {
          "internalType": "address",
          "name": "",
          "type": "address"
        }
      ],
      "name": "hasRedeemed",
      "outputs": [
        {
          "internalType": "bool",
          "name": "",
          "type": "bool"
        }
      ],
      "stateMutability": "view",
      "type": "function"
    },
    {
      "inputs": [
        {
          "internalType": "address",
          "name": "",
          "type": "address"
        }
      ],
      "name": "isRegistered",
      "outputs": [
        {
          "internalType": "bool",
          "name": "",
          "type": "bool"
        }
      ],
      "stateMutability": "view",
      "type": "function"
    },
    {
      "inputs": [
        {
          "internalType": "address",
          "name": "",
          "type": "address"
        }
      ],
      "name": "onBoardedUser",
      "outputs": [
        {
          "internalType": "uint256",
          "name": "id",
          "type": "uint256"
        },
        {
          "internalType": "string",
          "name": "clientDetails",
          "type": "string"
        },
        {
          "internalType": "address",
          "name": "underlyingAsset",
          "type": "address"
        },
        {
          "internalType": "uint256",
          "name": "depositedAmount",
          "type": "uint256"
        },
        {
          "internalType": "uint256",
          "name": "amountToSpend",
          "type": "uint256"
        },
        {
          "internalType": "uint256",
          "name": "timeDurationOfdeposit",
          "type": "uint256"
        },
        {
          "internalType": "uint256",
          "name": "lockTime",
          "type": "uint256"
        },
        {
          "internalType": "string",
          "name": "ipfsPensionDetails",
          "type": "string"
        },
        {
          "internalType": "bool",
          "name": "currentPlan",
          "type": "bool"
        }
      ],
      "stateMutability": "view",
      "type": "function"
    },
    {
      "inputs": [],
      "name": "owner",
      "outputs": [
        {
          "internalType": "address",
          "name": "",
          "type": "address"
        }
      ],
      "stateMutability": "view",
      "type": "function"
    },
    {
      "inputs": [],
      "name": "renounceOwnership",
      "outputs": [],
      "stateMutability": "nonpayable",
      "type": "function"
    },
    {
      "inputs": [
        {
          "internalType": "address",
          "name": "_underlyingAsset",
          "type": "address"
        },
        {
          "internalType": "string",
          "name": "_ipfsPensionDetails",
          "type": "string"
        },
        {
          "internalType": "uint256",
          "name": "_amountToSpend",
          "type": "uint256"
        },
        {
          "internalType": "uint256",
          "name": "_timeDurationOfDeposit",
          "type": "uint256"
        },
        {
          "internalType": "uint256",
          "name": "_lockTime",
          "type": "uint256"
        }
      ],
      "name": "setPensionPlan",
      "outputs": [],
      "stateMutability": "nonpayable",
      "type": "function"
    },
    {
      "inputs": [
        {
          "internalType": "address",
          "name": "",
          "type": "address"
        }
      ],
      "name": "stakedBalance",
      "outputs": [
        {
          "internalType": "uint256",
          "name": "",
          "type": "uint256"
        }
      ],
      "stateMutability": "view",
      "type": "function"
    },
    {
      "inputs": [
        {
          "internalType": "address",
          "name": "newOwner",
          "type": "address"
        }
      ],
      "name": "transferOwnership",
      "outputs": [],
      "stateMutability": "nonpayable",
      "type": "function"
    },
    {
      "inputs": [
        {
          "internalType": "address",
          "name": "_asset",
          "type": "address"
        },
        {
          "internalType": "uint256",
          "name": "_amount",
          "type": "uint256"
        }
      ],
      "name": "withdrawAssert",
      "outputs": [],
      "stateMutability": "nonpayable",
      "type": "function"
    },
    {
      "inputs": [
        {
          "internalType": "address",
          "name": "_asset",
          "type": "address"
        }
      ],
      "name": "withdrawPenalty",
      "outputs": [],
      "stateMutability": "nonpayable",
      "type": "function"
    },
    {
      "stateMutability": "payable",
      "type": "receive"
    }
  ],
  "bytecode": "0x60806040523480156200001157600080fd5b5060405162001e8c38038062001e8c8339810160408190526200003491620000eb565b6001600055620000443362000090565b600580546001600160a01b0319166001600160a01b038316179055620000776002620000e2602090811b620015a717901c565b50600480546001600160a01b031916331790556200011d565b600180546001600160a01b038381166001600160a01b0319831681179093556040519116919082907f8be0079c531659141344cd1fd0a4f28419497f9722a3daafe3b4186f6b6457e090600090a35050565b80546001019055565b600060208284031215620000fe57600080fd5b81516001600160a01b03811681146200011657600080fd5b9392505050565b611d5f806200012d6000396000f3fe60806040526004361061010d5760003560e01c80638bc5a19011610095578063d0069ae611610064578063d0069ae614610344578063db78b67c14610364578063f2fde38b14610394578063f851a440146103b4578063f88af21d146103d457600080fd5b80638bc5a190146102915780638da5cb5b146102c6578063c3c5a547146102e4578063cac5e4501461032457600080fd5b806333e06d09116100dc57806333e06d09146101d757806360217267146101f757806369e527da14610224578063715018a61461025c5780637c1894e51461027157600080fd5b806313949ba31461011d57806315de9e061461015d5780632108234d1461017f5780632b6a7221146101b757600080fd5b366101185734600355005b600080fd5b34801561012957600080fd5b5061014a610138366004611939565b60086020526000908152604090205481565b6040519081526020015b60405180910390f35b34801561016957600080fd5b5061017d6101783660046119f7565b6103f4565b005b34801561018b57600080fd5b5061014a61019a366004611a34565b600760209081526000928352604080842090915290825290205481565b3480156101c357600080fd5b5061017d6101d2366004611939565b6106d6565b3480156101e357600080fd5b5061017d6101f2366004611939565b61080b565b34801561020357600080fd5b5061014a610212366004611939565b60096020526000908152604090205481565b34801561023057600080fd5b50600554610244906001600160a01b031681565b6040516001600160a01b039091168152602001610154565b34801561026857600080fd5b5061017d610bd0565b34801561027d57600080fd5b5061017d61028c366004611a67565b610be4565b34801561029d57600080fd5b506102b16102ac366004611939565b610f24565b60405161015499989796959493929190611b2c565b3480156102d257600080fd5b506001546001600160a01b0316610244565b3480156102f057600080fd5b506103146102ff366004611939565b600a6020526000908152604090205460ff1681565b6040519015158152602001610154565b34801561033057600080fd5b5061017d61033f366004611b9a565b611091565b34801561035057600080fd5b5061017d61035f366004611b9a565b6112a0565b34801561037057600080fd5b5061031461037f366004611939565b600b6020526000908152604090205460ff1681565b3480156103a057600080fd5b5061017d6103af366004611939565b6114fc565b3480156103c057600080fd5b50600454610244906001600160a01b031681565b3480156103e057600080fd5b506102b16103ef366004611bc4565b611572565b336000908152600a602052604090205460ff16156104595760405162461bcd60e51b815260206004820152601d60248201527f436c69656e74206164647265737320616c72656164792065786973747300000060448201526064015b60405180910390fd5b600060405180610120016040528061047060025490565b8152602080820185905260006040808401829052606084018290526080840182905260a0840182905260c084018290528051808401825282815260e0850152610100909301819052338152600682529190912082518155828201518051939450849391926104e692600185019290910190611884565b5060408201516002820180546001600160a01b0319166001600160a01b03909216919091179055606082015160038201556080820151600482015560a0820151600582015560c0820151600682015560e08201518051610550916007840191602090910190611884565b5061010091909101516008909101805460ff1916911515919091179055600c805460018101825560009190915281517fdf6966c971051c3d54ec59162606531493a51404a002842f56009d7e5cf4a8c76009909202918201908155602080840151805185946105e5937fdf6966c971051c3d54ec59162606531493a51404a002842f56009d7e5cf4a8c8909101920190611884565b5060408201516002820180546001600160a01b0319166001600160a01b03909216919091179055606082015160038201556080820151600482015560a0820151600582015560c0820151600682015560e0820151805161064f916007840191602090910190611884565b5061010091909101516008909101805491151560ff19928316179055336000908152600a6020526040902080549091166001179055610692600280546001019055565b816040516106a09190611bdd565b6040519081900381209033907f5280632109b7149944b243222087e17ff4dc7da7f67dc47832a798411615dfcd90600090a35050565b6106de6115b0565b6001600160a01b038116600090815260076020908152604080832030845290915290205461074e5760405162461bcd60e51b815260206004820152601860248201527f43616e6e6f74207769746864726177203020616d6f756e7400000000000000006044820152606401610450565b600480546001600160a01b0380841660008181526007602090815260408083203084529091529081902054905163a9059cbb60e01b8152919463a9059cbb946107ad941692016001600160a01b03929092168252602082015260400190565b602060405180830381600087803b1580156107c757600080fd5b505af11580156107db573d6000803e3d6000fd5b505050506040513d601f19601f820116820180604052508101906107ff9190611bf9565b61080857600080fd5b50565b336000908152600a602052604090205460ff1661086a5760405162461bcd60e51b815260206004820152601b60248201527f43616c6c65722068617320746f206265205265676973746572656400000000006044820152606401610450565b336000908152600660209081526040808320815161012081019092528054825260018101805492939192918401916108a190611c1b565b80601f01602080910402602001604051908101604052809291908181526020018280546108cd90611c1b565b801561091a5780601f106108ef5761010080835404028352916020019161091a565b820191906000526020600020905b8154815290600101906020018083116108fd57829003601f168201915b505050918352505060028201546001600160a01b03166020820152600382015460408201526004820154606082015260058201546080820152600682015460a082015260078201805460c09092019161097290611c1b565b80601f016020809104026020016040519081016040528092919081815260200182805461099e90611c1b565b80156109eb5780601f106109c0576101008083540402835291602001916109eb565b820191906000526020600020905b8154815290600101906020018083116109ce57829003601f168201915b50505091835250506008919091015460ff16151560209091015260c08101519091504211610a735760405162461bcd60e51b815260206004820152602f60248201527f556e61626c6520746f207769746864726177206265666f726520796f7572206c60448201526e6f636b74696d65206578706972657360881b6064820152608401610450565b600554336000908152600960205260409081902054905163852a12e360e01b81526001600160a01b039092169163852a12e391610ab69160040190815260200190565b602060405180830381600087803b158015610ad057600080fd5b505af1158015610ae4573d6000803e3d6000fd5b505050506040513d601f19601f82011682018060405250810190610b089190611c56565b5033600090815260096020526040902054610b23908061160a565b336000818152600960209081526040808320949094556001600160a01b0386168252600781528382209282529190915290812054610b6f90600590610b6990606461161d565b90611629565b6001600160a01b0384166000908152600760209081526040808320308452909152902054909150610ba09082611635565b6001600160a01b039093166000908152600760209081526040808320308452909152812093909355506101000152565b610bd86115b0565b610be26000611641565b565b60008311610c345760405162461bcd60e51b815260206004820181905260248201527f617070726f766520616e20616d6f756e742067726561746572207468616e20306044820152606401610450565b336000908152600a602052604090205460ff16610c935760405162461bcd60e51b815260206004820152601b60248201527f43616c6c65722068617320746f206265205265676973746572656400000000006044820152606401610450565b33600090815260066020908152604080832081516101208101909252805482526001810180549293919291840191610cca90611c1b565b80601f0160208091040260200160405190810160405280929190818152602001828054610cf690611c1b565b8015610d435780601f10610d1857610100808354040283529160200191610d43565b820191906000526020600020905b815481529060010190602001808311610d2657829003601f168201915b505050918352505060028201546001600160a01b03166020820152600382015460408201526004820154606082015260058201546080820152600682015460a082015260078201805460c090920191610d9b90611c1b565b80601f0160208091040260200160405190810160405280929190818152602001828054610dc790611c1b565b8015610e145780601f10610de957610100808354040283529160200191610e14565b820191906000526020600020905b815481529060010190602001808311610df757829003601f168201915b50505091835250506008919091015460ff16151560209091015260c081015190915015610e835760405162461bcd60e51b815260206004820152601b60248201527f436c69656e7420616c726561647920686173206c6f636b74696d6500000000006044820152606401610450565b6001600160a01b0386166040820152610e9c4283611635565b60c0820152600161010082015260808101849052610eba4284611635565b60a082015260e0810185905260408101516080820151610eda9190611693565b60e081015160c08201516040517f0a342f2e207c3c328a10158ad0b71a9e64a10e319c5d635be24f8c7e418ea6e492610f14923392611c6f565b60405180910390a1505050505050565b60066020526000908152604090208054600182018054919291610f4690611c1b565b80601f0160208091040260200160405190810160405280929190818152602001828054610f7290611c1b565b8015610fbf5780601f10610f9457610100808354040283529160200191610fbf565b820191906000526020600020905b815481529060010190602001808311610fa257829003601f168201915b5050505050908060020160009054906101000a90046001600160a01b03169080600301549080600401549080600501549080600601549080600701805461100590611c1b565b80601f016020809104026020016040519081016040528092919081815260200182805461103190611c1b565b801561107e5780601f106110535761010080835404028352916020019161107e565b820191906000526020600020905b81548152906001019060200180831161106157829003601f168201915b5050506008909301549192505060ff1689565b336000908152600a602052604090205460ff166110e85760405162461bcd60e51b815260206004820152601560248201527410db1a595b9d081b9bdd081c9959da5cdd195c9959605a1b6044820152606401610450565b6001600160a01b0382166111335760405162461bcd60e51b81526020600482015260126024820152711059191c995cdcc81a5cc81a5b9d985b1a5960721b6044820152606401610450565b6001600160a01b03821660009081526007602090815260408083203384529091529020548111156111a65760405162461bcd60e51b815260206004820152601960248201527f4d696e696d756d2076616c7565206e6f742072656163686564000000000000006044820152606401610450565b60405163a9059cbb60e01b8152336004820152602481018290526001600160a01b0383169063a9059cbb90604401602060405180830381600087803b1580156111ee57600080fd5b505af1158015611202573d6000803e3d6000fd5b505050506040513d601f19601f820116820180604052508101906112269190611bf9565b6112675760405162461bcd60e51b815260206004820152601260248201527111195c1bdcda5d081a185cc819985a5b195960721b6044820152606401610450565b60405181815233907fe5f257a822c511056f3d8ab9eeccb913c1a1cf81f73423dbc46df776bd5bd9c29060200160405180910390a25050565b336000908152600a602052604090205460ff166112f75760405162461bcd60e51b815260206004820152601560248201527410db1a595b9d081b9bdd081c9959da5cdd195c9959605a1b6044820152606401610450565b6001600160a01b0382166113425760405162461bcd60e51b81526020600482015260126024820152711059191c995cdcc81a5cc81a5b9d985b1a5960721b6044820152606401610450565b6000811161138a5760405162461bcd60e51b8152602060048201526015602482015274416d6f756e74206973206c657373207468616e203160581b6044820152606401610450565b6001600160a01b03821660009081526007602090815260408083203384529091529020546113b89082611635565b6001600160a01b03831660008181526007602090815260408083203380855292529182902093909355516323b872dd60e01b8152600481019290925230602483015260448201839052906323b872dd90606401602060405180830381600087803b15801561142557600080fd5b505af1158015611439573d6000803e3d6000fd5b505050506040513d601f19601f8201168201806040525081019061145d9190611bf9565b61149e5760405162461bcd60e51b815260206004820152601260248201527111195c1bdcda5d081a185cc819985a5b195960721b6044820152606401610450565b6001600160a01b038216600090815260076020908152604080832033808552908352928190205490513081529092917f5548c837ab068cf56a2c2479df0882a4922fd203edb7517321831d95078c5f62910160405180910390a35050565b6115046115b0565b6001600160a01b0381166115695760405162461bcd60e51b815260206004820152602660248201527f4f776e61626c653a206e6577206f776e657220697320746865207a65726f206160448201526564647265737360d01b6064820152608401610450565b61080881611641565b600c818154811061158257600080fd5b60009182526020909120600990910201805460018201805491935090610f4690611c1b565b80546001019055565b6001546001600160a01b03163314610be25760405162461bcd60e51b815260206004820181905260248201527f4f776e61626c653a2063616c6c6572206973206e6f7420746865206f776e65726044820152606401610450565b60006116168284611cb9565b9392505050565b60006116168284611cd0565b60006116168284611cf2565b60006116168284611d11565b600180546001600160a01b038381166001600160a01b0319831681179093556040519116919082907f8be0079c531659141344cd1fd0a4f28419497f9722a3daafe3b4186f6b6457e090600090a35050565b6001600160a01b03821660009081526007602090815260408083203384529091529020548111156116c357600080fd5b60055460405163095ea7b360e01b81526001600160a01b039182166004820152602481018390529083169063095ea7b390604401602060405180830381600087803b15801561171157600080fd5b505af1158015611725573d6000803e3d6000fd5b505050506040513d601f19601f820116820180604052508101906117499190611bf9565b5060055460405163140e25ad60e31b8152600481018390526001600160a01b039091169063a0712d6890602401602060405180830381600087803b15801561179057600080fd5b505af11580156117a4573d6000803e3d6000fd5b505050506040513d601f19601f820116820180604052508101906117c89190611c56565b156118035760405162461bcd60e51b815260206004820152600b60248201526a1b5a5b9d0819985a5b195960aa1b6044820152606401610450565b3360009081526009602052604090205461181d9082611635565b336000818152600960209081526040808320949094556001600160a01b038616825260078152838220928252919091522054611859908261160a565b6001600160a01b03909216600090815260076020908152604080832033845290915290209190915550565b82805461189090611c1b565b90600052602060002090601f0160209004810192826118b257600085556118f8565b82601f106118cb57805160ff19168380011785556118f8565b828001600101855582156118f8579182015b828111156118f85782518255916020019190600101906118dd565b50611904929150611908565b5090565b5b808211156119045760008155600101611909565b80356001600160a01b038116811461193457600080fd5b919050565b60006020828403121561194b57600080fd5b6116168261191d565b634e487b7160e01b600052604160045260246000fd5b600082601f83011261197b57600080fd5b813567ffffffffffffffff8082111561199657611996611954565b604051601f8301601f19908116603f011681019082821181831017156119be576119be611954565b816040528381528660208588010111156119d757600080fd5b836020870160208301376000602085830101528094505050505092915050565b600060208284031215611a0957600080fd5b813567ffffffffffffffff811115611a2057600080fd5b611a2c8482850161196a565b949350505050565b60008060408385031215611a4757600080fd5b611a508361191d565b9150611a5e6020840161191d565b90509250929050565b600080600080600060a08688031215611a7f57600080fd5b611a888661191d565b9450602086013567ffffffffffffffff811115611aa457600080fd5b611ab08882890161196a565b959895975050505060408401359360608101359360809091013592509050565b60005b83811015611aeb578181015183820152602001611ad3565b83811115611afa576000848401525b50505050565b60008151808452611b18816020860160208601611ad0565b601f01601f19169290920160200192915050565b60006101208b8352806020840152611b468184018c611b00565b905060018060a01b038a1660408401528860608401528760808401528660a08401528560c084015282810360e0840152611b808186611b00565b9150508215156101008301529a9950505050505050505050565b60008060408385031215611bad57600080fd5b611bb68361191d565b946020939093013593505050565b600060208284031215611bd657600080fd5b5035919050565b60008251611bef818460208701611ad0565b9190910192915050565b600060208284031215611c0b57600080fd5b8151801515811461161657600080fd5b600181811c90821680611c2f57607f821691505b60208210811415611c5057634e487b7160e01b600052602260045260246000fd5b50919050565b600060208284031215611c6857600080fd5b5051919050565b6001600160a01b0384168152606060208201819052600090611c9390830185611b00565b9050826040830152949350505050565b634e487b7160e01b600052601160045260246000fd5b600082821015611ccb57611ccb611ca3565b500390565b600082611ced57634e487b7160e01b600052601260045260246000fd5b500490565b6000816000190483118215151615611d0c57611d0c611ca3565b500290565b60008219821115611d2457611d24611ca3565b50019056fea2646970667358221220fbeb029db480fdf83c8c2ffad6b6bb6d81f46214a33ade72856b4b3c3dad7a2864736f6c63430008090033",
  "linkReferences": {},
  "deployedLinkReferences": {}
}